{
  "_format": "hh-sol-artifact-1",
  "contractName": "SkrapContract",
  "sourceName": "contracts/SkrapContract.sol",
  "abi": [
    {
      "inputs": [],
      "stateMutability": "nonpayable",
      "type": "constructor"
    },
    {
      "inputs": [],
      "name": "ERC20TransferFailed",
      "type": "error"
    },
    {
      "inputs": [],
      "name": "ETHTransferFailed",
      "type": "error"
    },
    {
      "inputs": [],
      "name": "InvalidAmount",
      "type": "error"
    },
    {
      "inputs": [],
      "name": "InvalidRecipient",
      "type": "error"
    },
    {
      "inputs": [],
      "name": "InvalidToken",
      "type": "error"
    },
    {
      "inputs": [
        {
          "internalType": "address",
          "name": "owner",
          "type": "address"
        }
      ],
      "name": "OwnableInvalidOwner",
      "type": "error"
    },
    {
      "inputs": [
        {
          "internalType": "address",
          "name": "account",
          "type": "address"
        }
      ],
      "name": "OwnableUnauthorizedAccount",
      "type": "error"
    },
    {
      "inputs": [],
      "name": "ReentrancyGuardReentrantCall",
      "type": "error"
    },
    {
      "inputs": [
        {
          "internalType": "address",
          "name": "token",
          "type": "address"
        }
      ],
      "name": "SafeERC20FailedOperation",
      "type": "error"
    },
    {
      "anonymous": false,
      "inputs": [
        {
          "indexed": true,
          "internalType": "address",
          "name": "from",
          "type": "address"
        },
        {
          "indexed": true,
          "internalType": "address",
          "name": "to",
          "type": "address"
        },
        {
          "indexed": true,
          "internalType": "address",
          "name": "token",
          "type": "address"
        },
        {
          "indexed": false,
          "internalType": "uint256",
          "name": "amount",
          "type": "uint256"
        }
      ],
      "name": "ERC20Sent",
      "type": "event"
    },
    {
      "anonymous": false,
      "inputs": [
        {
          "indexed": true,
          "internalType": "address",
          "name": "from",
          "type": "address"
        },
        {
          "indexed": true,
          "internalType": "address",
          "name": "to",
          "type": "address"
        },
        {
          "indexed": false,
          "internalType": "uint256",
          "name": "amount",
          "type": "uint256"
        }
      ],
      "name": "NativeSent",
      "type": "event"
    },
    {
      "anonymous": false,
      "inputs": [
        {
          "indexed": true,
          "internalType": "address",
          "name": "previousOwner",
          "type": "address"
        },
        {
          "indexed": true,
          "internalType": "address",
          "name": "newOwner",
          "type": "address"
        }
      ],
      "name": "OwnershipTransferred",
      "type": "event"
    },
    {
      "inputs": [],
      "name": "owner",
      "outputs": [
        {
          "internalType": "address",
          "name": "",
          "type": "address"
        }
      ],
      "stateMutability": "view",
      "type": "function"
    },
    {
      "inputs": [],
      "name": "renounceOwnership",
      "outputs": [],
      "stateMutability": "nonpayable",
      "type": "function"
    },
    {
      "inputs": [
        {
          "internalType": "address",
          "name": "token",
          "type": "address"
        },
        {
          "internalType": "address",
          "name": "to",
          "type": "address"
        },
        {
          "internalType": "uint256",
          "name": "amount",
          "type": "uint256"
        }
      ],
      "name": "sendERC20",
      "outputs": [],
      "stateMutability": "nonpayable",
      "type": "function"
    },
    {
      "inputs": [
        {
          "internalType": "address payable",
          "name": "to",
          "type": "address"
        }
      ],
      "name": "sendNative",
      "outputs": [],
      "stateMutability": "payable",
      "type": "function"
    },
    {
      "inputs": [
        {
          "internalType": "address",
          "name": "newOwner",
          "type": "address"
        }
      ],
      "name": "transferOwnership",
      "outputs": [],
      "stateMutability": "nonpayable",
      "type": "function"
    },
    {
      "stateMutability": "payable",
      "type": "receive"
    }
  ],
  "bytecode": "0x608060405234801561001057600080fd5b50338061003757604051631e4fbdf760e01b81526000600482015260240160405180910390fd5b6100408161004a565b506001805561009a565b600080546001600160a01b038381166001600160a01b0319831681178455604051919092169283917f8be0079c531659141344cd1fd0a4f28419497f9722a3daafe3b4186f6b6457e09190a35050565b61056e806100a96000396000f3fe60806040526004361061004e5760003560e01c80631888d7121461005a578063715018a61461006f5780638da5cb5b146100845780638f975a64146100b0578063f2fde38b146100d057600080fd5b3661005557005b600080fd5b61006d6100683660046104d3565b6100f0565b005b34801561007b57600080fd5b5061006d610201565b34801561009057600080fd5b50600054604080516001600160a01b039092168252519081900360200190f35b3480156100bc57600080fd5b5061006d6100cb3660046104f7565b610215565b3480156100dc57600080fd5b5061006d6100eb3660046104d3565b610306565b6100f8610346565b6001600160a01b03811661011f57604051634e46966960e11b815260040160405180910390fd5b346000036101405760405163162908e360e11b815260040160405180910390fd5b6000816001600160a01b03163460405160006040518083038185875af1925050503d806000811461018d576040519150601f19603f3d011682016040523d82523d6000602084013e610192565b606091505b50509050806101b45760405163b12d13eb60e01b815260040160405180910390fd5b6040513481526001600160a01b0383169033907f6920ad70d492575b792b7e654d590ec378827834d60329e4103adcd513edd11a9060200160405180910390a3506101fe60018055565b50565b610209610370565b610213600061039d565b565b61021d610346565b6001600160a01b0383166102445760405163c1ab6dc160e01b815260040160405180910390fd5b6001600160a01b03821661026b57604051634e46966960e11b815260040160405180910390fd5b8060000361028c5760405163162908e360e11b815260040160405180910390fd5b6102a16001600160a01b0384163384846103ed565b826001600160a01b0316826001600160a01b0316336001600160a01b03167f50aa48c56705cbc94ffcf48204a0b0ad367c89816f0cd18728d63595a186fda3846040516102f091815260200190565b60405180910390a461030160018055565b505050565b61030e610370565b6001600160a01b03811661033d57604051631e4fbdf760e01b8152600060048201526024015b60405180910390fd5b6101fe8161039d565b60026001540361036957604051633ee5aeb560e01b815260040160405180910390fd5b6002600155565b6000546001600160a01b031633146102135760405163118cdaa760e01b8152336004820152602401610334565b600080546001600160a01b038381166001600160a01b0319831681178455604051919092169283917f8be0079c531659141344cd1fd0a4f28419497f9722a3daafe3b4186f6b6457e09190a35050565b604080516001600160a01b0385811660248301528416604482015260648082018490528251808303909101815260849091019091526020810180516001600160e01b03166323b872dd60e01b17905261044790859061044d565b50505050565b600080602060008451602086016000885af180610470576040513d6000823e3d81fd5b50506000513d91508115610488578060011415610495565b6001600160a01b0384163b155b1561044757604051635274afe760e01b81526001600160a01b0385166004820152602401610334565b6001600160a01b03811681146101fe57600080fd5b6000602082840312156104e557600080fd5b81356104f0816104be565b9392505050565b60008060006060848603121561050c57600080fd5b8335610517816104be565b92506020840135610527816104be565b92959294505050604091909101359056fea2646970667358221220184984e30b90d28fa0f2c428c8ae316fb72f76234c1efd97438ae38672023abd64736f6c63430008140033",
  "linkReferences": {},
  "deployedLinkReferences": {}
}